:1000000012C02CC05CC32DC3E0C228C027C026C0CC
:1000100025C024C023C022C021C020C067C31EC089
:100020001DC01CC01BC011241FBECFE5D4E0DEBF25
:10003000CDBF12E0A0E6B0E0E4E1FDE002C0059033
:100040000D92A633B107D9F712E0A6E3B2E001C0E2
:100050001D92A335B107E1F718D25AC6D1CFE19965
:10006000FECF8EEF91E09FBB8EBBE09A8DB3809365
:10007000360210923702E199FECF8FEF91E09FBBDD
:100080008EBBE09A8DB38093380210923902E199C9
:10009000FECF80E092E09FBB8EBBE09A8DB3809351
:1000A0003E0210923F02E199FECF81E092E09FBBB9
:1000B0008EBBE09A8DB380933C0210923D02E19991
:1000C000FECF82E092E09FBB8EBBE09A8DB380931F
:1000D000400210924102E199FECF83E092E09FBB83
:1000E0008EBBE09A8DB380933A0210923B02089542
:1000F0008B98A49AAC9A81E090E0EFD4A498AC9845
:1001000081E090E0EAD480B38695869586958095C7
:100110008170089580E690E010D4FCCFAF92BF923A
:10012000CF92DF92EF92FF920F931F93DF93CF93C3
:100130000F92CDB7DEB793DFE0904002F09041021E
:10014000B0903A02A0903B0282E690E0F6D36E01B6
:100150000894C11CD11C40E050E061E0C601DED42F
:100160008981843671F0833741F0813619F408941F
:10017000E11CF11C00E010E00AC00894E108F1085D
:10018000F9CFF0924102E092400201E010E0C70195
:1001900017D485EA90E0D1D3012BE9F28B2D9A2D6B
:1001A0009C01790187EA90E0C8D380914002909148
:1001B000410206D485EB90E0C0D36E010894C11CC7
:1001C000D11C40E050E061E0C601A8D489818436AA
:1001D00071F0833741F0813619F40894E11CF11C69
:1001E00000E010E00AC00894E108F108F9CFF092AD
:1001F0003B02E0923A0201E010E0C701E1D385EA58
:1002000090E09BD3012BE9F28FEB90E096D38091A5
:100210003A0290913B02D4D38DEC90E08ED32091A2
:100220004002E199FECF82E092E09FBB8EBB2DBBE6
:100230000FB6F894E29AE19A0FBE20913A02E19942
:10024000FECF83E092E09FBB8EBB2DBB0FB6F89430
:10025000E29AE19A0FBE80913302909134026DD3FD
:100260000F90CF91DF911F910F91FF90EF90DF9052
:10027000CF90BF90AF9008950F931F93F0DE8DEE57
:1002800090E05BD3809136029091370299D304E1DC
:1002900011E0C80152D3809138029091390290D375
:1002A00089E191E04AD380913E0290913F0288D348
:1002B000C80143D380913C0290913D0281D38DE2ED
:1002C00091E03BD3809140029091410279D3C801E3
:1002D00034D380913A0290913B0272D380913302E1
:1002E000909134022AD31F910F91089596D38430B0
:1002F00091F0853028F4813061F08230A1F407C09C
:10030000803169F0803269F0883069F406C082E09B
:10031000089581E0089583E0089584E0089585E0DC
:10032000089586E0089580E00895DF93CF9300D08C
:1003300000D0CDB7DEB781E0C9D281E491E0FDD233
:10034000D5DF8130E9F784E991E0F7D2CE0101965B
:100350005AD22981E199FECF8EEF91E09FBB8EBBEF
:100360002DBB0FB6F894E29AE19A0FBE2B81E1996A
:10037000FECF8FEF91E09FBB8EBB2DBB0FB6F894E5
:10038000E29AE19A0FBE84EA91E0D7D289819A81FC
:1003900017D384E191E0D1D28B819C8111D388EA7B
:1003A00091E0CBD28DEC91E0C8D2A0DF8130E9F7AB
:1003B00084E991E0C2D2CE01019625D22981E1994A
:1003C000FECF80E092E09FBB8EBB2DBB0FB6F894B2
:1003D000E29AE19A0FBE2B81E199FECF81E092E093
:1003E0009FBB8EBB2DBB0FB6F894E29AE19A0FBE6D
:1003F00084EA91E0A2D289819A81E2D284E191E0FB
:100400009CD28B819C81DCD284E092E096D280E009
:100410005DD280913302909134028FD20F900F9071
:100420000F900F90CF91DF9108950F931F93DF935B
:10043000CF930F92CDB7DEB78E010F5F1F4F41E014
:1004400050E061E0C8016AD389818C3651F08D3665
:1004500018F4893659F407C08D3639F0833731F4F2
:100460000BC063DF03C008DF01C058DE3FDF882315
:1004700031F388EE93E031D3F2DD80E090E00F902D
:10048000CF91DF911F910F910895DF92EF92FF922C
:100490000F931F93DF93CF9300D000D0CDB7DEB77B
:1004A00052D1C3DF60E280E234D260913A026055FB
:1004B00080914002805526D281E008D28E010F5FE4
:1004C0001F4FC801A0D1EE24FF24D02E012F67C0FA
:1004D0008D2D902F98D180913E0290913F024497AC
:1004E00029813A812817390780F080913C02909148
:1004F0003D0244972B813C812817390730F060E199
:1005000080E107D291E0E92EF12C80913E0290919A
:100510003F02449729813A812817390778F0809162
:1005200038029091390244962B813C8182179307BF
:1005300028F060E180E2EDD1EE24FF2480913602C4
:1005400090913702449629813A818217930778F077
:1005500080913C0290913D0244972B813C81281769
:10056000390728F060E280E1D4D1EE24FF2429810C
:100570003A81809136029091370244968217930710
:1005800070F0809138029091390244968217930757
:1005900030F060E280E2BDD182E0E82EF12C83E011
:1005A000E816F10408F494CF60E080E0ABD180E07D
:1005B00090E00F900F900F900F90CF91DF911F91CF
:1005C0000F91FF90EF90DF9008951F920F920FB65A
:1005D0000F9211242F933F934F935F936F937F93C9
:1005E0008F939F93AF93BF93EF93FF9384B58B5DEE
:1005F00084BD80914C028F5F80934C0280914C02AD
:10060000882399F480914F0290915002A091510259
:10061000B09152020196A11DB11D80934F0290939B
:100620005002A0935102B093520280914D029091DA
:100630004E02892B29F0E0914D02F0914E0209956E
:10064000FF91EF91BF91AF919F918F917F916F91AA
:100650005F914F913F912F910F900FBE0F901F9080
:1006600018951F920F920FB60F9211248F939F939C
:10067000AF93BF9380914C028F5F80934C02809127
:100680004C02882399F480914F0290915002A091DE
:100690005102B09152020196A11DB11D80934F02EB
:1006A00090935002A0935102B0935202BF91AF9128
:1006B0009F918F910F900FBE0F901F9018951F92D2
:1006C0000F920FB60F9211248F939F9381E090E0C9
:1006D00090934302809342028BB78F778BBF9F9199
:1006E0008F910F900FBE0F901F9018951F920F9231
:1006F0000FB60F9211242F933F934F935F936F93F5
:100700007F938F939F93AF93BF93EF93FF938091CA
:10071000440290914502892B29F0E0914402F09126
:1007200045020995FF91EF91BF91AF919F918F91F4
:100730007F916F915F914F913F912F910F900FBEDD
:100740000F901F90189589E785BD89B7806489BF90
:1007500081E983BD10BC8FEC89B988E18AB996E83C
:1007600090BD8FE387BB84EF81BB81EA8FBD82E0C0
:100770008EBD96B9979880E0A9D061E081E0AFD0B6
:1007800060E080E0ACD081E08ED060E280E2C1D059
:1007900060E080E0B7D010924702109246021092BB
:1007A0004E0210924D02109245021092440278942B
:1007B0000895EF92FF920F931F938C01E0904602F1
:1007C000F0904702109247021092460284B38C7F49
:1007D00084BB979A60E070E081E090E050D0F8012F
:1007E0009183808360E070E080E090E048D0F80181
:1007F00093838283F0924702E09246021F910F9109
:10080000FF90EF900895EF92FF920F931F938C014A
:10081000E0904602F0904702109247021092460282
:1008200060E070E083E090E02AD0F801918380835B
:1008300060E070E082E090E022D0F8019383828350
:10084000F0924702E09246021F910F91FF90EF90C5
:1008500008950F931F930091460210914702109242
:100860004702109246026AE070E085E090E007D00F
:1008700010934702009346021F910F91089585300F
:10088000910511F485EC01C0806487B9611571058B
:1008900011F0862F1AD1369A349BFECF349A24B1A8
:1008A00035B1C9010895882311F4C09803C081307F
:1008B00019F4C09A92980895833019F4C09A929AC4
:1008C0000895823011F4C098929A089592B3829557
:1008D000880F880F807C9F7B982B92BB0895982F60
:1008E000882311F4662349F0979884B3836084BB0E
:1008F00085B3836085BB992309F4A998662309F41D
:10090000A898089590E09BBD8ABD70E079BD68BD50
:10091000089592B39F7C982B92BB88B38F7C862BD3
:1009200088BB0895982F88E08AB95E9A5D9BFECFB8
:100930009CB95E9BFECF1AB8089520E038E009C04C
:100940003AB95E9A5D9BFECFECB95E9BFECF2F5FFE
:100950001AB8FC01E20FF11DE081EE2389F708953A
:10096000FC0198E009C09AB95E9A5D9BFECF8CB9F4
:100970005E9BFECF1AB8319684918823A1F7089523
:100980000F931F93DF93CF93CDB7DEB72C970FB69E
:10099000F894DEBF0FBECDBF2AE030E08E010F5FBE
:1009A0001F4FA80103D1C801C8DF2C960FB6F894D9
:1009B000DEBF0FBECDBFCF91DF911F910F91089584
:1009C0000F931F93DF93CF93CDB7DEB727970FB663
:1009D000F894DEBF0FBECDBF4AE050E08E010F5F3E
:1009E0001F4FB801C4D0C801A8DF27960FB6F894EE
:1009F000DEBF0FBECDBFCF91DF911F910F91089544
:100A000093988B9885B7837F85BF8BB780688BBFA2
:100A100008958BB78F778BBF0895CF92DF92EF92B7
:100A2000FF920F931F93C0904602D09047021092FE
:100A30004702109246028B9A939A6AE070E084E033
:100A400090E01DDF7C01939885E03FD0D092470273
:100A5000C092460200E010E060E070E48CE990E0B3
:100A6000A801970126D1CA01B9012EE330E040E088
:100A700050E0DED0685572468940904020E137E270
:100A800040E050E016D1822F1F910F91FF90EF9020
:100A9000DF90CF90089560914F0270915002809145
:100AA00051029091520220914C02982F872F762F5D
:100AB0006627620F711D811D911D24E230E040E028
:100AC00050E0D5D0CA01B901089590914C02980F19
:100AD00080914C028917E1F70895BC0120E030E0D5
:100AE00009C040914C024C5D80914C028417E1F7A3
:100AF0002F5F3F4F26173707A4F3089528E02AB940
:100B0000FC0105C05D9BFECF81918CB961506623CD
:100B1000C9F75E9BFECF5E9A53980895FC0180E171
:100B20008AB94115510511F490E01EC0DF0170E053
:100B300005C05F9B07C08CB18D937F5F7617B0F4C3
:100B400020E030E02F5F3F4FC901019784179507E0
:100B500080F34217530750F484E5808308955F9B28
:100B6000FECF8CB181939F5F9617C8F30895FB0168
:100B70009F01E8944230BCF04532ACF44A3029F48D
:100B800097FB1EF4909581959F4F642F7727ACD0EB
:100B9000805D8A330CF0895D8193CB010097A9F7C2
:100BA00016F45DE251931082C90132C0FA01CF936D
:100BB000FF93EF9322303CF125322CF5C22FE894BD
:100BC000CA3049F497FB3EF49095809570956195F5
:100BD0007F4F8F4F9F4F2C2F332744275527FF934D
:100BE000EF9345D0EF91FF91605D6A330CF0695D42
:100BF0006193B901CA01605070408040904059F73C
:100C000016F4CDE2C19310828F919F91CF9100C0D5
:100C1000DC01FC01672F71917723E1F7329704C063
:100C20007C916D9370836291AE17BF07C8F30895EE
:100C3000629FD001739FF001829FE00DF11D649FC0
:100C4000E00DF11D929FF00D839FF00D749FF00D4C
:100C5000659FF00D9927729FB00DE11DF91F639FED
:100C6000B00DE11DF91FBD01CF0111240895A1E2CE
:100C70001A2EAA1BBB1BFD010DC0AA1FBB1FEE1F16
:100C8000FF1FA217B307E407F50720F0A21BB30B61
:100C9000E40BF50B661F771F881F991F1A9469F7DD
:100CA00060957095809590959B01AC01BD01CF0139
:100CB000089597FB092E05260ED057FD04D0D7DFE7
:100CC0000AD0001C38F450954095309521953F4F3F
:100CD0004F4F5F4F0895F6F7909580957095619509
:100CE0007F4F8F4F9F4F0895AA1BBB1B51E107C039
:100CF000AA1FBB1FA617B70710F0A61BB70B881FAC
:100D0000991F5A95A9F780959095BC01CD0108953A
:040D1000F894FFCF85
:100D140078000D0A2D4D6F746F72737065656420D1
:100D240065696E7374656C6C656E2D0D0A61203D8A
:100D3400202B310D0A73203D202D310D0A64203DF6
:100D44002073706569636865726E0D0A4C696E6B19
:100D5400733A0D0A0020000D0A446F6E653A204D67
:100D6400534C3A20000D0A5265636874733A000DBF
:100D74000A446F6E653A204D53523A20000D0A57CB
:100D8400726974696E6720686F6C7920736869741E
:100D940020746F20454550524F4D0D0A000D0A49ED
:100DA4006E666F733A0D0A454550524F4D3A0D0A1F
:100DB4002D5363687761727A77657274652D0D0AB5
:100DC4004C3A200020523A20000D0A2D57656973D1
:100DD4007377657274652D0D0A4C3A20000D0A2D47
:100DE4004D6F746F7273706565642D0D0A4C3A20F3
:100DF400000D0A4B616C69627269657265204C6909
:100E04006E652D53656E736F720D0A415355524FC3
:100E140020617566207363687761727A656E205508
:100E24006E7465726772756E64207374656C6C653C
:100E34006E20756E642054312064727565636B6531
:100E44006E0D0A004B616C696272696572652E2EC3
:100E54002E0D0A004C3A20000D0A4B616C69627237
:100E6400696572756E6720312F32202D20416267CB
:100E7400657363686C6F7373656E0D0A0041535537
:100E8400524F20617566207765697373656E2055CE
:100E94006E7465726772756E64207374656C6C65CC
:100EA4006E20756E642054312064727565636B65C1
:100EB4006E0D0A000D0A4B616C6962726965727588
:100EC4006E6720322F32202D20416267657363687C
:100ED4006C6F7373656E0D0A000D0A2D5448582DFE
:060EE4000D0A00290200C6
:00000001FF
